:100000000C9434000C9451000C9451000C94510049
:100010000C9451000C9451000C9451000C94E60087
:100020000C9451000C9451000C9451000C9451000C
:100030000C9451000C9451000C9451000C945100FC
:100040000C9451000C9451000C9451000C945100EC
:100050000C9451000C9451000C9451000C945100DC
:100060000C9451000C94510011241FBECFEFD8E026
:10007000DEBFCDBF12E0A0E0B1E0E0E8FDE102C0EC
:1000800005900D92A434B107D9F712E0A4E4B2E0D0
:1000900001C01D92AA37B107E1F70E9401020C943A
:1000A000BE0E0C94000087E080937E00ECE7F0E049
:1000B0008081806C8083EAE7F0E0808187688083BC
:1000C0000895ECE7F0E090818F70907F982B9083FB
:1000D000EAE7F0E0808180648083808186FDFDCF47
:1000E0008091780090917900089580914A02813042
:1000F00089F0813020F0823009F067C034C08BB1C4
:1001000087778BB98091470280934B0281E080937F
:100110004A02089580914B028823E1F480914802BD
:10012000882341F48091470280934B028BB18777FB
:100130008BB9089580914602882309F046C08BB19F
:1001400088688BB98091480280934C0282E080934A
:100150004A0208958BB187778BB980914B02815009
:1001600080934B02089580914602882359F08BB109
:1001700087778BB98091470280934B0281E080930F
:100180004A02089580914C028823B9F48091470275
:10019000882341F48091480280934C028BB1886897
:1001A0008BB908958BB187778BB980914702809383
:1001B0004B0281E080934A0208958BB188688BB925
:1001C00080914C02815080934C0208951F920F92AF
:1001D0000FB60F9211242F933F934F935F936F931A
:1001E0007F938F939F93AF93BF93EF93FF938091F0
:1001F00044029091450262E370E00E948B0B8130D3
:10020000910531F480914902823011F40E94750009
:10021000809144029091450201969093450280930B
:10022000440221E0843F920741F495B180E289279E
:1002300085B91092450210924402FF91EF91BF914F
:10024000AF919F918F917F916F915F914F913F916E
:100250002F910F900FBE0F901F9018956F927F9265
:100260008F929F92AF92BF92CF92DF92EF92FF92C6
:100270000F931F93CF93DF93CDB7DEB7E2970FB6FF
:10028000F894DEBF0FBECDBFE82E0E949806EE2088
:1002900051F4DE011196E0E0F1E089E001900D9269
:1002A0008150E1F721C000D000D000D0EDB7FEB7FB
:1002B0003196CE010196ADB7BEB712969C938E9340
:1002C000119789E091E0938382838E2D90E00497CB
:1002D000958384830E94E70B8DB79EB706960FB671
:1002E000F8949EBF0FBE8DBFCE0101960E94270AD3
:1002F000CC24DD24AA24BB246894A1F8FF244E0159
:100300000894811C911C0F2EF4E16F2EF1E07F2EDA
:10031000F02D06C0A2E0B0E0AA0EBB1ECA0EDB1E86
:1003200086018C2D0E941506882321F5EE2021F0F0
:10033000003E110509F443C000D000D000D0EDB755
:10034000FEB73196ADB7BEB712969C928E921197BA
:1003500073826282158304830E94E70B8DB79EB778
:1003600006960FB6F8949EBF0FBE8DBFC4010E94C3
:10037000270AF3940E9467069FEFA916B10454F26E
:10038000FF2021F48BE191E00E94270A8FE291E0A7
:100390000E94270AE2960FB6F894DEBF0FBECDBFCB
:1003A000DF91CF911F910F91FF90EF90DF90CF9051
:1003B000BF90AF909F908F907F906F9008950E9414
:1003C0006706A8CF80E284B985B18E7D85B987B1F3
:1003D000887F87B988B1887F88B9E0EBF0E08081B9
:1003E0008260808385E08093B1008CE78093B300C6
:1003F0001092B200E0E7F0E0808182608083789420
:1004000008950E94E2010E940F060E9453000E947C
:100410002A0880E00E9448088EE492E06AE044E105
:1004200050E00E9417078AB18C6F8AB98BB1837034
:100430008BB983E390E00E94030A81E391E00E947C
:10044000270A80E00E942E0184E00E942E0185E0B0
:100450000E942E0186E00E942E0187E00E942E015C
:1004600086E691E00E94270AC6EAD1E009E811E099
:100470000F2EF8E9EF2EF1E0FF2EF02D0E94E80597
:10048000823041F0843051F08130C1F7C8010E94C0
:10049000270AF4CFC7010E94270AF0CFCE010E949D
:1004A000270AECCF909149029130C9F0913018F0B1
:1004B000923079F526C05B9B08C09091B4018917F2
:1004C00058F49BB197779BB907C09091B3019817E7
:1004D00018F49BB198689BB90E94480808955B9BEB
:1004E00008C09091B6018917A0F48BB1877D8BB9B4
:1004F00008959091B501981760F48BB188628BB91B
:100500000895F8948093480294E6981B90934702CC
:1005100078940895CF92DF92EF92FF920F931F93FA
:10052000CF93DF93CDB7DEB7EE970FB6F894DEBF6B
:100530000FBECDBF8C0101960E94B20BF82ECE01EA
:100540008B96B8010E94D80BD8018C918E3609F495
:10055000D1C18F3650F48C3609F46DC18D3608F058
:100560009BC1813609F002C30AC0833709F44EC229
:10057000873709F4CCC2803709F0F8C216C20F2EB3
:10058000F1E2EF2EF02DEF0CB2E0FB1609F490C073
:10059000BF1538F0FF2071F0E1E0FE1609F043C10D
:1005A00064C0F3E0FF1609F4A6C024E0F21609F0D7
:1005B0003AC1EDC080E00E946100BC018EE492E08F
:1005C0000E942B078C01880F991F9801220F331F5F
:1005D000220F331F220F331F820F931FEDE5F0E030
:1005E000BF010E948B0B6B016E9FC0016F9F900D2E
:1005F0007E9F900D11246AE070E00E949F0B98018D
:10060000261B370B48EE53E0249FC001259F900D19
:10061000349F900D1124BF010E948B0B69838DB70D
:100620009EB708970FB6F8949EBF0FBE8DBFEDB76B
:10063000FEB73196CE010396ADB7BEB712969C9326
:100640008E93119786EC91E093838283D582C48246
:10065000668317820E94E70BEDB7FEB738960FB698
:10066000F894FEBF0FBEEDBFE1C081E00E946100C3
:1006700000D000D000D0EDB7FEB731969E012D5FBF
:100680003F4FADB7BEB712963C932E93119724ED12
:1006900031E033832283958384830E94E70BEDB797
:1006A000FEB736960FB6F894FEBF0FBEEDBFBEC0C4
:1006B00082E00E94610000D000D000D0EDB7FEB70C
:1006C00031969E012D5F3F4FADB7BEB712963C935A
:1006D0002E9311972DED31E033832283958384830C
:1006E0000E94E70BEDB7FEB736960FB6F894FEBF43
:1006F0000FBEEDBF9BC080E0BE016F5F7F4FAE01BC
:100700004E5F5F4F0E94A9062A81222369F0DE0115
:100710001396E6EEF1E08BE001900D928150E1F747
:10072000EE246894E2F882C02DB73EB728503040DE
:100730000FB6F8943EBF0FBE2DBFEDB7FEB7319692
:100740009E012D5F3F4FADB7BEB712963C932E93DF
:10075000119721EF31E033832283958384832981AC
:1007600030E081E792E0289FA001299F500D389F3B
:10077000500D1124578346830E94E70BEDB7FEB757
:1007800038960FB6F894FEBF0FBEEDBF4FC081E0A4
:10079000BE016F5F7F4FAE014E5F5F4F0E94A906A3
:1007A0002A81222369F0DE011396EFEFF1E08BE05E
:1007B00001900D928150E1F7EE246894E2F836C082
:1007C0002DB73EB7285030400FB6F8943EBF0FBE4D
:1007D0002DBFEDB7FEB731969E012D5F3F4FADB7F0
:1007E000BEB712963C932E9311972AE032E03383E2
:1007F000228395838483298130E081E792E0289FDA
:10080000A001299F500D389F500D11245783468316
:100810000E94E70BEDB7FEB738960FB6F894FEBF0F
:100820000FBEEDBF03C0EE246894E1F8CE0103963D
:100830000E94270AB7C1F1E0FF1508F49AC10F2EF4
:10084000F6E2EF2EF02DEF0CFF2011F05C9A01C0C4
:100850005C9800D000D000D0EDB7FEB731968E0185
:100860000D5F1F4FADB7BEB712961C930E93119735
:1008700088E192E093838283E48215820E94E70BF1
:10088000EDB7FEB736960FB6F894FEBF0FBEEDBFBC
:10089000C8010E94270A86C1F2E0FF1508F46DC165
:1008A0000F2EF8E2EF2EF02DEF0CF092490200D05F
:1008B00000D000D0EDB7FEB731968E010D5F1F4F0F
:1008C000ADB7BEB712961C930E93119788E192E0D4
:1008D00093838283E48215820E94E70BEDB7FEB713
:1008E00036960FB6F894FEBF0FBEEDBFC8010E944A
:1008F000270A58C1F3E0FF1508F443C1D801129646
:100900008C911297803209F040C1E02FF12FDF0166
:100910000D900020E9F71197AE1BBF0BA430B10575
:1009200008F436C10F2EFBE2EF2EF02DEF0CC801BC
:1009300003960E94B20BB1E0FB1661F0FB1638F093
:10094000E2E0FE1651F0F3E0FF1661F409C0809377
:10095000B60108C08093B50105C08093B40102C000
:100960008093B30100D000D000D0EDB7FEB7319630
:100970008E010D5F1F4FADB7BEB712961C930E933D
:10098000119788E192E093838283E48215820E942A
:10099000E70BEDB7FEB736960FB6F894FEBF0FBE65
:1009A000EDBFC8010E94270AFDC0F1E0FF1508F461
:1009B000F2C0FF2011F45E9801C05E9A0F2EFFE294
:1009C000EF2EF02DEF0C00D000D000D0EDB7FEB729
:1009D00031968E010D5F1F4FADB7BEB712961C93B7
:1009E0000E93119788E192E093838283E4821582CB
:1009F0000E94E70BEDB7FEB736960FB6F894FEBF30
:100A00000FBEEDBFC8010E94270ACCC0F1E0FF165F
:100A100071F1FF1628F022E0F21609F078C062C0EA
:100A200000D000D000D0EDB7FEB731968E010D5F3B
:100A30001F4FADB7BEB712961C930E9311978FE15F
:100A400092E0938382838091C4019091C501958344
:100A500084830E94E70BEDB7FEB736960FB6F89485
:100A6000FEBF0FBEEDBFC8010E94270AABC02DB765
:100A70003EB72E5030400FB6F8943EBF0FBE2DBF8C
:100A8000EDB7FEB731968E010D5F1F4FADB7BEB704
:100A900012961C930E93119783E292E093838283C4
:100AA00080914902848315828091B60186831782E2
:100AB0008091B501808711868091B4018287138669
:100AC0008091B301848715860E94E70BEDB7FEB7CE
:100AD0003E960FB6F894FEBF0FBEEDBFC8010E9450
:100AE000270A70C080E090E00E942E0184E090E030
:100AF0000E942E0185E090E00E942E0186E090E0A9
:100B00000E942E0187E090E00E942E015BC0F4E677
:100B1000FF1508F444C00F2EF4E3EF2EF02DEF0C78
:100B20008F2D0E94520200D000D000D0EDB7FEB74A
:100B300031968E010D5F1F4FADB7BEB712961C9355
:100B40000E93119788E192E093838283E482158269
:100B50000E94E70BEDB7FEB736960FB6F894FEBFCE
:100B60000FBEEDBFC8010E94270A1CC0EE24E3940B
:100B700019C0EE246894E1F815C0EE246894E1F8F9
:100B800011C0EE246894E1F80DC0EE24E3940AC08D
:100B9000EE24E39407C0EE246894E1F803C0EE2449
:100BA0006894E1F88E2DEE960FB6F894DEBF0FBE76
:100BB000CDBFDF91CF911F910F91FF90EF90DF900C
:100BC000CF9008950F2EF4E3EF2EF02DEF0CA8CF69
:100BD000CF93DF93C6E6D2E00E943C0A90E00E94E9
:100BE000D00B8A3019F08D3081F4F6CF20914D0270
:100BF00086E692E0FC01E20FF11D108210924D0298
:100C00000E948A02DF91CF91089590914D02FE01DA
:100C1000E90FF11D80839F5F90934D02DDCF10920D
:100C2000B90088E48093B800089594EA9093BC00DA
:100C3000ECEBF0E090819923ECF79091B900987F6C
:100C4000983011F09031A1F48093BB0084E8809338
:100C5000BC00ECEBF0E080818823ECF79091B900C8
:100C6000987F983139F081E0903429F480E008953C
:100C700081E0089580E00895CF93DF93ECEBF0E0FE
:100C800024EAA9EBB0E0CBEBD0E034E844E92083E0
:100C900090819923ECF79C91987F983011F09031D6
:100CA000B1F78883308390819923ECF79C91987FEA
:100CB000903211F0983529F44083908194FDFDCF56
:100CC000E6CFDF91CF9108950E941506089584E93B
:100CD0008093BC00ECEBF0E0808184FDFDCF0895B3
:100CE0008093BB0084E88093BC00ECEBF0E0808153
:100CF0008823ECF79091B900987F81E0983209F44D
:100D000080E0089584EC8093BC00ECEBF0E08081FF
:100D10008823ECF78091BB00089584E88093BC00A1
:100D2000ECEBF0E080818823ECF78091BB00089524
:100D3000CF93C82F80EE0E941506813039F08C2F9A
:100D40000E9470060E94670680E001C081E0CF919A
:100D50000895EF92FF920F931F93CF93DF938B0130
:100D6000EA011882882329F486E00E94980683E924
:100D70000AC0813029F487E00E94980685E903C003
:100D800081E0888351C09881992309F04DC00E9469
:100D9000150691E0813009F090E098839923B9F528
:100DA0000E948206C82F0E948D06FC2EEE24C82FBA
:100DB000D0E0CE29DF29C87FDD23CCF4CE019F7798
:100DC000C0E0D0E8C81BD90BCE01969587959695C3
:100DD0008795969587958F70F8018083CC0FCD2FDE
:100DE000CC1FDD0BD195D095C195DF4F12C0CE0140
:100DF0009695879596958795969587958F70F80126
:100E00008083CC0FCD2FCC1FDD0BD19502C0C0E06D
:100E1000D0E00E9467068C2F9D2FDF91CF911F910C
:100E20000F91FF90EF900895C0E0D0E0F2CFFC0169
:100E3000262FCA01658B148A578B468B662351F087
:100E400070E00E948B0B80E06083718332968F5F2D
:100E50008217D1F70895EF92FF921F93CF93DF93FC
:100E6000FC01AB011489C12FD0E0CC0FDD1FC80FEE
:100E7000D91F86899789288139817C01E21AF30A72
:100E80002589622FCA0170E00E948B0B79836883E9
:100E9000C701860F971F978B868B1F5F148B1217C6
:100EA00008F0148ADF91CF911F91FF90EF90089581
:100EB000FC016A30710514F4658B02C08AE0858BF1
:100EC000148A858990E0181619064CF420E030E069
:100ED000119211922F5F3F4F28173907CCF30895D5
:100EE0006F927F928F929F92AF92BF92CF92DF923A
:100EF000EF92FF920F931F93CF93DF935C01C42F68
:100F0000D52F162F072FFC019588992039F1848859
:100F1000882D90E0880F991F3501680E791EF30126
:100F20006081718180E090E00E94D50AF62EE72E64
:100F3000D82EC92E8C2F9D2FA12FB02FBC01CD01F3
:100F40000E94A90ADC01CB01F30191838083839481
:100F5000F501848A891430F0148A04C0F42EE52E39
:100F6000D62EC72E8F2D9E2DAD2DBC2DBC01CD01B3
:100F7000DF91CF911F910F91FF90EF90DF90CF9075
:100F8000BF90AF909F908F907F906F9008956F92D9
:100F90007F928F929F92AF92BF92CF92DF92EF9209
:100FA000FF920F931F93CF93DF936B017C01490155
:100FB0005A013801F80160817181828193810E9418
:100FC000440AC62FD72F082F192F862F9D2FA02F09
:100FD000B12FBC01CD01A70196010E94630B181629
:100FE00074F4C501B401A70196010E94450ADC0111
:100FF000CB01F30180839183A283B3831CC0C7011B
:10100000B6019058502F412F0C2F1D2F252F342F14
:10101000A90198010E94630B18166CF4C501B40174
:10102000A70196010E94440ADC01CB01F3018083F1
:101030009183A283B383DF91CF911F910F91FF9092
:10104000EF90DF90CF90BF90AF909F908F907F9068
:101050006F900895219A84E690E0909387008093A2
:101060008600E0E8F0E08081806880838081826093
:10107000808380818E7B8083E1E8F0E080818861DD
:10108000808380818260808380818A7F80830895CD
:1010900024E630E0281B3109309389002093880032
:1010A00008952A9A229A81E58CBD81E08DBD84B194
:1010B000886284B908952A98662359F0E82FF92F99
:1010C00080E091919EBD0DB407FEFDCF8F5F861726
:1010D000C1F78EB52A9A08952A98662359F0E82F09
:1010E000F92F80E091919EBD0DB407FEFDCF8F5F7B
:1010F0008617C1F72A9A08952A988EBD0DB407FE67
:10110000FDCF2A9A8EB50895CF93DF9300D0CDB747
:10111000DEB780E091E09A838983CE01019662E098
:101120000E946C0884E092E09A838983CE01019644
:1011300062E00E946C0887E093E09A838983CE0185
:10114000019662E00E946C088DE294E09A838983A4
:10115000CE01019662E00E946C080F900F90DF9123
:10116000CF910895AF92BF92CF92DF92FF920F93EB
:101170001F93CF93DF9300D0CDB7DEB7FC018B0177
:10118000F22E89519C4F2AE2873F920708F0F3C064
:1011900077230CF4F0C0643071050CF0ECC04230E1
:1011A00008F0E9C0B42EBB0CBB0CAA24FF237CF4CE
:1011B000CC24DD24CE1ADF0AC501816093669A83B0
:1011C0008983CE01019662E00E946C082BC0CF019A
:1011D00068EE73E00E949F0B70E088E19CEF689FCF
:1011E0009001699F300D789F300D11246901CE0E5A
:1011F000DF1EFB01E75CFD4F808190E003301105AD
:1012000019F420E830E002C020E030E08A299B2970
:101210009366822B932B9A838983CE01019662E099
:101220000E946C08C60164E670E00E949F0BE62FE6
:10123000F0E08CE99FEFE89F9001E99F300DF89F67
:10124000300D1124C20ED31EE75CFD4F808190E06B
:101250008A299B290230110509F457C092669A83A6
:101260008983CE01019662E00E946C08C6016AE0A3
:1012700070E00E949F0BE62FF0E0CF01880F991FCE
:101280009F01220F331F220F331F220F331F820FA4
:10129000931FC81AD90AE75CFD4F808190E08A2924
:1012A0009B290130110509F054C0806891669A832A
:1012B0008983CE01019662E00E946C08F601E75C2A
:1012C000FD4F808190E08A299B2920E830E0822B25
:1012D000932B90669A838983CE01019662E00E94E7
:1012E0006C0807E010E8812F8F2159F0802F90E0E3
:1012F000805C9F4F19828A83CE01019662E00E9432
:101300006C081695015078F736C0806892669A830B
:101310008983CE01019662E00E946C08C6016AE0F2
:1013200070E00E949F0B70E0CB01880F991F9B011A
:10133000220F331F220F331F220F331F820F931FE1
:10134000C81AD90A675C7D4FFB01808190E08A2929
:101350009B2991669A838983CE01019662E00E945F
:101360006C08F601E75CFD4F808190E08A299B299B
:1013700020E030E0ACCF0F900F90DF91CF911F9124
:101380000F91FF90DF90CF90BF90AF900895CF93D3
:10139000DF9300D00F92CDB7DEB790E499838A83B4
:1013A0006B83CE01019663E00E946C080F900F9052
:1013B0000F90DF91CF91089580E06FE10E94C709FF
:1013C00081E06FEF0E94C70986E06FE10E94C709C4
:1013D00089E06FEA0E94C7090895CF93DF9300D098
:1013E0000F92CDB7DEB791E499838A838FEF8B8319
:1013F000CE01019663E00E945B080F900F900F9062
:10140000DF91CF9108959093C5008093C40088E147
:101410008093C100E0ECF0E080818D7F80838EE0DE
:101420008093C2000895E0ECF0E0908195FFFDCF3D
:101430008093C6000895CF93C82F8A3019F48DE0A9
:101440000E94130A8C2F0E94130ACF910895CF9304
:10145000DF93EC018881882331F021960E941B0ADA
:1014600089918823D9F7DF91CF9108958091C000A9
:10147000881F8827881F0895E0ECF0E0808188238A
:10148000ECF78091C60008955058BB27AA270ED0CC
:10149000E0C0D1D030F0D6D020F031F49F3F11F42D
:1014A0001EF4C6C00EF4E095E7FBBCC0E92FE2D005
:1014B00080F3BA17620773078407950718F071F471
:1014C0009EF5FAC00EF4E0950B2EBA2FA02D0B015D
:1014D000B90190010C01CA01A0011124FF27591B79
:1014E00099F0593F50F4503E68F11A16F040A22F7F
:1014F000232F342F4427585FF3CF469537952795F0
:10150000A795F0405395C9F77EF41F16BA0B620BEE
:10151000730B840BBAF09150A1F0FF0FBB1F661F35
:10152000771F881FC2F70EC0BA0F621F731F841F78
:1015300048F4879577956795B795F7959E3F08F09E
:10154000B3CF9395880F08F09927EE0F979587955D
:10155000089598D088F09F5790F0B92F9927B751E8
:10156000A0F0D1F0660F771F881F991F1AF0BA9567
:10157000C9F712C0B13081F09FD0B1E008959CC08E
:10158000672F782F8827B85F39F0B93FCCF386955D
:1015900077956795B395D9F73EF4909580957095BA
:1015A00061957F4F8F4F9F4F0895E89409C097FB37
:1015B0003EF490958095709561957F4F8F4F9F4F2A
:1015C0009923A9F0F92F96E9BB279395F69587956E
:1015D00077956795B795F111F8CFFAF4BB0F11F431
:1015E00060FF1BC06F5F7F4F8F4F9F4F16C08823D8
:1015F00011F096E911C0772321F09EE8872F762F0E
:1016000005C0662371F096E8862F70E060E02AF04E
:101610009A95660F771F881FDAF7880F969587953A
:1016200097F9089597F99F6780E870E060E0089562
:101630009FEF80EC089500240A94161617061806EA
:101640000906089500240A941216130614060506C6
:101650000895092E0394000C11F4882352F0BB0F57
:1016600040F4BF2B11F460FF04C06F5F7F4F8F4FBA
:101670009F4F089557FD9058440F551F59F05F3FF5
:1016800071F04795880F97FB991F61F09F3F79F0A4
:1016900087950895121613061406551FF2CF469526
:1016A000F1DF08C0161617061806991FF1CF8695A8
:1016B0007105610508940895E894BB27662777278C
:1016C000CB0197F9089503D008F48FEF0895990F8F
:1016D0000008550FAA0BE0E8FEEF16161706E807FC
:1016E000F907C0F012161306E407F50798F0621B1D
:1016F000730B840B950B39F40A2661F0232B242BF2
:10170000252B21F408950A2609F4A140A6958FEF10
:10171000811D811D0895AA1BBB1B51E107C0AA1F93
:10172000BB1FA617B70710F0A61BB70B881F991F82
:101730005A95A9F780959095BC01CD01089597FB26
:10174000092E07260AD077FD04D0E5DF06D0002059
:101750001AF4709561957F4F0895F6F790958195ED
:101760009F4F0895FC0188279927E8942191203202
:10177000E9F3293010F02E30C8F32B3241F02D322E
:1017800039F4689404C00E94DF0B820F911D2191EF
:1017900020532A30C0F31EF4909581959F4F0895F1
:1017A0009111089581548A5108F4805E855A0895F4
:1017B000FB01DC0101900D920020E1F708957AE031
:1017C000979F902D879F802D910D11240895AEE055
:1017D000B0E0EDEEFBE00C94950E0D891E8986E0DD
:1017E0008C831A8309838FEF9FE79E838D83AE01DD
:1017F000475E5F4FCE0101966F89788D0E94090C7C
:10180000EF81F885E00FF11F10822E96E4E00C9432
:10181000B10EADE0B0E0EFE0FCE00C94870E3C01CF
:101820007D876C875A01FC0117821682838181FFB4
:10183000C8C12E010894411C511CF3019381EC8511
:10184000FD8593FD859193FF8191FD87EC8788232A
:1018500009F4B3C1853241F493FD859193FF8191E1
:10186000FD87EC87853229F490E0B3010E94FD0DDD
:10187000E4CFFF24EE2410E01032B0F48B3269F094
:101880008C3228F4803251F0833271F40BC08D32E7
:1018900039F0803349F411602CC01260146029C003
:1018A000186027C0106125C017FD2EC0282F2053B7
:1018B0002A3098F416FF08C08F2D880FF82EFF0CE1
:1018C000FF0CF80EF20E15C08E2D880FE82EEE0CD0
:1018D000EE0CE80EE20E10620CC08E3221F416FD02
:1018E0006CC1106406C08C3611F4106802C08836D2
:1018F00059F4EC85FD8593FD859193FF8191FD87DA
:10190000EC87882309F0B8CF982F9554933018F0BE
:101910009052933038F424E030E0A20EB31E3FE33F
:1019200039830FC0833631F0833781F0833509F076
:101930005AC022C0F5018081898322E030E0A20EE6
:10194000B31E21E0C22ED12C420114C092E0292EF8
:10195000312C2A0C3B1CF5018080918016FF03C0BE
:101960006F2D70E002C06FEF7FEFC4010E94F20D97
:101970006C0151011F7715C082E0282E312C2A0CF2
:101980003B1CF5018080918016FF03C06F2D70E035
:1019900002C06FEF7FEFC4010E94E70D6C01106879
:1019A000510113FD1CC006C080E290E0B3010E940B
:1019B000FD0DEA948E2D90E0C816D906A8F30FC04D
:1019C000F40117FD859117FF81914F0190E0B3015C
:1019D0000E94FD0DE110EA940894C108D108C114D9
:1019E000D10471F7E7C0843611F0893651F5F5015D
:1019F00017FF07C080819181A281B38124E030E08C
:101A000008C080819181AA2797FDA095BA2F22E076
:101A100030E0A20EB31E012F0F76B7FF08C0B095BD
:101A2000A095909581959F4FAF4FBF4F0068BC0127
:101A3000CD01A2012AE030E00E94290ED82ED41850
:101A40003FC0853721F41F7E2AE030E020C0197F97
:101A50008F36A9F0803720F4883509F0AEC00BC06E
:101A6000803721F0883709F0A8C001C0106114FF49
:101A700009C0146007C014FF08C0166006C028E043
:101A800030E005C020E130E002C020E132E0F501A5
:101A900017FF07C0608171818281938144E050E02B
:101AA00006C06081718180E090E042E050E0A40EC9
:101AB000B51EA2010E94290ED82ED418012F0F772F
:101AC00006FF09C00E7FDF1430F404FF06C002FDDC
:101AD00004C00F7E02C01D2D01C01F2D802F90E07D
:101AE00004FF0CC0FE01ED0DF11D2081203311F427
:101AF000097E09C002FF06C01E5F05C0867890708F
:101B0000009709F01F5F802E992403FD12C000FF8B
:101B10000DC0FD2C1E1550F4FE0CF11A1E2D06C032
:101B200080E290E0B3010E94FD0D1F5F1E15C0F31F
:101B300004C01E1510F4E11A01C0EE2484FE0FC08B
:101B400080E390E0B3010E94FD0D82FE1FC081FE84
:101B500003C088E590E010C088E790E00DC0C401A4
:101B600086789070009791F081FC02C080E201C0FD
:101B70008BE207FD8DE290E0B3010E94FD0D06C0EF
:101B800080E390E0B3010E94FD0DFA94DF14C0F3EE
:101B9000DA94F201ED0DF11D808190E0B3010E9415
:101BA000FD0DDD20A9F706C080E290E0B3010E94A0
:101BB000FD0DEA94EE20C1F740CEF30186819781B6
:101BC00002C08FEF9FEF2D96E2E10C94A30EFC0173
:101BD0000590615070400110D8F7809590958E0F58
:101BE0009F1F0895FC016150704001900110D8F7CB
:101BF000809590958E0F9F1F08950F931F93CF93FD
:101C0000DF938C01EB018B8181FF1BC082FF0DC034
:101C10002E813F818C819D812817390764F4E881EA
:101C2000F9810193F983E88306C0E885F985802F5F
:101C30000995009731F48E819F8101969F838E8351
:101C400002C00FEF1FEFC801DF91CF911F910F91DD
:101C50000895FA01AA27283051F1203181F1E89442
:101C60006F936E7F6E5F7F4F8F4F9F4FAF4FB1E08F
:101C70003ED0B4E03CD0670F781F891F9A1FA11D8A
:101C8000680F791F8A1F911DA11D6A0F711D811D8B
:101C9000911DA11D20D009F468943F912AE0269F50
:101CA00011243019305D3193DEF6CF010895462FAF
:101CB0004770405D4193B3E00FD0C9F7F6CF462F90
:101CC0004F70405D4A3318F0495D31FD40524193F9
:101CD00002D0A9F7EACFB4E0A695979587957795B6
:101CE0006795BA95C9F700976105710508959B013D
:101CF000AC010A2E06945795479537952795BA95C6
:101D0000C9F7620F731F841F951FA01D08952F929E
:101D10003F924F925F926F927F928F929F92AF927B
:101D2000BF92CF92DF92EF92FF920F931F93CF93C8
:101D3000DF93CDB7DEB7CA1BDB0B0FB6F894DEBF5F
:101D40000FBECDBF09942A88398848885F846E8485
:101D50007D848C849B84AA84B984C884DF80EE80CF
:101D6000FD800C811B81AA81B981CE0FD11D0FB6D8
:101D7000F894DEBF0FBECDBFED010895F894FFCFFC
:101D80004932435B2D5D3A20004932435B25316483
:101D90005D3A2000307825307820006E6F20646531
:101DA0007669636573206465746563746564000AAD
:101DB00000452D427265772076322E3030204272F7
:101DC0006577696E672053797374656D210A537462
:101DD000617274696E67206932635F7363616E2834
:101DE000292E2E2E0A000A5374617274696E6720C0
:101DF00072733233325F636F6D6D616E645F686101
:101E00006E646C657228290A00436F6D6D616E64A3
:101E1000204572726F720A004E756D6265722045C0
:101E200072726F720A00493243204572726F720AF1
:101E300000463C0604231E245265766973696F6E62
:101E40003A202400B7014C6D33353D25642E2530F2
:101E500032640A0056686C743D25640A00566D6C45
:101E6000743D25640A0054686C743D302E30302077
:101E70000054686C743D25642E253034640A005487
:101E80006D6C743D302E30302000546D6C743D25E7
:101E9000642E253034640A006F6B2532640A0025F5
:101EA000730A00253031642C2533642C2533642CCF
:101EB0002533642C2533640A007E306D79335B5FF3
:041EC000707F7B00B4
:00000001FF
